{"abi":[{"type":"constructor","inputs":[{"name":"_name","type":"string","internalType":"string"},{"name":"_symbol","type":"string","internalType":"string"}],"stateMutability":"nonpayable"},{"type":"function","name":"allowance","inputs":[{"name":"owner","type":"address","internalType":"address"},{"name":"spender","type":"address","internalType":"address"}],"outputs":[{"name":"","type":"uint256","internalType":"uint256"}],"stateMutability":"view"},{"type":"function","name":"approve","inputs":[{"name":"spender","type":"address","internalType":"address"},{"name":"value","type":"uint256","internalType":"uint256"}],"outputs":[{"name":"","type":"bool","internalType":"bool"}],"stateMutability":"nonpayable"},{"type":"function","name":"balanceOf","inputs":[{"name":"account","type":"address","internalType":"address"}],"outputs":[{"name":"","type":"uint256","internalType":"uint256"}],"stateMutability":"view"},{"type":"function","name":"burn","inputs":[{"name":"from","type":"address","internalType":"address"},{"name":"amount","type":"uint256","internalType":"uint256"}],"outputs":[],"stateMutability":"nonpayable"},{"type":"function","name":"decimals","inputs":[],"outputs":[{"name":"","type":"uint8","internalType":"uint8"}],"stateMutability":"view"},{"type":"function","name":"mint","inputs":[{"name":"to","type":"address","internalType":"address"},{"name":"amount","type":"uint256","internalType":"uint256"}],"outputs":[],"stateMutability":"nonpayable"},{"type":"function","name":"name","inputs":[],"outputs":[{"name":"","type":"string","internalType":"string"}],"stateMutability":"view"},{"type":"function","name":"owner","inputs":[],"outputs":[{"name":"","type":"address","internalType":"address"}],"stateMutability":"view"},{"type":"function","name":"symbol","inputs":[],"outputs":[{"name":"","type":"string","internalType":"string"}],"stateMutability":"view"},{"type":"function","name":"totalSupply","inputs":[],"outputs":[{"name":"","type":"uint256","internalType":"uint256"}],"stateMutability":"view"},{"type":"function","name":"transfer","inputs":[{"name":"to","type":"address","internalType":"address"},{"name":"value","type":"uint256","internalType":"uint256"}],"outputs":[{"name":"","type":"bool","internalType":"bool"}],"stateMutability":"nonpayable"},{"type":"function","name":"transferFrom","inputs":[{"name":"from","type":"address","internalType":"address"},{"name":"to","type":"address","internalType":"address"},{"name":"value","type":"uint256","internalType":"uint256"}],"outputs":[{"name":"","type":"bool","internalType":"bool"}],"stateMutability":"nonpayable"},{"type":"event","name":"Approval","inputs":[{"name":"owner","type":"address","indexed":true,"internalType":"address"},{"name":"spender","type":"address","indexed":true,"internalType":"address"},{"name":"value","type":"uint256","indexed":false,"internalType":"uint256"}],"anonymous":false},{"type":"event","name":"Burned","inputs":[{"name":"from","type":"address","indexed":true,"internalType":"address"},{"name":"amount","type":"uint256","indexed":false,"internalType":"uint256"}],"anonymous":false},{"type":"event","name":"Mint","inputs":[{"name":"to","type":"address","indexed":true,"internalType":"address"},{"name":"amount","type":"uint256","indexed":false,"internalType":"uint256"}],"anonymous":false},{"type":"event","name":"Transfer","inputs":[{"name":"from","type":"address","indexed":true,"internalType":"address"},{"name":"to","type":"address","indexed":true,"internalType":"address"},{"name":"value","type":"uint256","indexed":false,"internalType":"uint256"}],"anonymous":false},{"type":"error","name":"ERC20InsufficientAllowance","inputs":[{"name":"spender","type":"address","internalType":"address"},{"name":"allowance","type":"uint256","internalType":"uint256"},{"name":"needed","type":"uint256","internalType":"uint256"}]},{"type":"error","name":"ERC20InsufficientBalance","inputs":[{"name":"sender","type":"address","internalType":"address"},{"name":"balance","type":"uint256","internalType":"uint256"},{"name":"needed","type":"uint256","internalType":"uint256"}]},{"type":"error","name":"ERC20InvalidApprover","inputs":[{"name":"approver","type":"address","internalType":"address"}]},{"type":"error","name":"ERC20InvalidReceiver","inputs":[{"name":"receiver","type":"address","internalType":"address"}]},{"type":"error","name":"ERC20InvalidSender","inputs":[{"name":"sender","type":"address","internalType":"address"}]},{"type":"error","name":"ERC20InvalidSpender","inputs":[{"name":"spender","type":"address","internalType":"address"}]},{"type":"error","name":"Unauthorized","inputs":[]}],"bytecode":{"object":"0x608060405234801561000f575f5ffd5b50604051611617380380611617833981810160405281019061003191906101e9565b81818160039081610042919061046f565b508060049081610052919061046f565b5050503360055f6101000a81548173ffffffffffffffffffffffffffffffffffffffff021916908373ffffffffffffffffffffffffffffffffffffffff160217905550505061053e565b5f604051905090565b5f5ffd5b5f5ffd5b5f5ffd5b5f5ffd5b5f601f19601f8301169050919050565b7f4e487b71000000000000000000000000000000000000000000000000000000005f52604160045260245ffd5b6100fb826100b5565b810181811067ffffffffffffffff8211171561011a576101196100c5565b5b80604052505050565b5f61012c61009c565b905061013882826100f2565b919050565b5f67ffffffffffffffff821115610157576101566100c5565b5b610160826100b5565b9050602081019050919050565b8281835e5f83830152505050565b5f61018d6101888461013d565b610123565b9050828152602081018484840111156101a9576101a86100b1565b5b6101b484828561016d565b509392505050565b5f82601f8301126101d0576101cf6100ad565b5b81516101e084826020860161017b565b91505092915050565b5f5f604083850312156101ff576101fe6100a5565b5b5f83015167ffffffffffffffff81111561021c5761021b6100a9565b5b610228858286016101bc565b925050602083015167ffffffffffffffff811115610249576102486100a9565b5b610255858286016101bc565b9150509250929050565b5f81519050919050565b7f4e487b71000000000000000000000000000000000000000000000000000000005f52602260045260245ffd5b5f60028204905060018216806102ad57607f821691505b6020821081036102c0576102bf610269565b5b50919050565b5f819050815f5260205f209050919050565b5f6020601f8301049050919050565b5f82821b905092915050565b5f600883026103227fffffffffffffffffffffffffffffffffffffffffffffffffffffffffffffffff826102e7565b61032c86836102e7565b95508019841693508086168417925050509392505050565b5f819050919050565b5f819050919050565b5f61037061036b61036684610344565b61034d565b610344565b9050919050565b5f819050919050565b61038983610356565b61039d61039582610377565b8484546102f3565b825550505050565b5f5f905090565b6103b46103a5565b6103bf818484610380565b505050565b5b818110156103e2576103d75f826103ac565b6001810190506103c5565b5050565b601f821115610427576103f8816102c6565b610401846102d8565b81016020851015610410578190505b61042461041c856102d8565b8301826103c4565b50505b505050565b5f82821c905092915050565b5f6104475f198460080261042c565b1980831691505092915050565b5f61045f8383610438565b9150826002028217905092915050565b6104788261025f565b67ffffffffffffffff811115610491576104906100c5565b5b61049b8254610296565b6104a68282856103e6565b5f60209050601f8311600181146104d7575f84156104c5578287015190505b6104cf8582610454565b865550610536565b601f1984166104e5866102c6565b5f5b8281101561050c578489015182556001820191506020850194506020810190506104e7565b868310156105295784890151610525601f891682610438565b8355505b6001600288020188555050505b505050505050565b6110cc8061054b5f395ff3fe608060405234801561000f575f5ffd5b50600436106100b2575f3560e01c806370a082311161006f57806370a082311461018c5780638da5cb5b146101bc57806395d89b41146101da5780639dc29fac146101f8578063a9059cbb14610214578063dd62ed3e14610244576100b2565b806306fdde03146100b6578063095ea7b3146100d457806318160ddd1461010457806323b872dd14610122578063313ce5671461015257806340c10f1914610170575b5f5ffd5b6100be610274565b6040516100cb9190610d45565b60405180910390f35b6100ee60048036038101906100e99190610df6565b610304565b6040516100fb9190610e4e565b60405180910390f35b61010c610326565b6040516101199190610e76565b60405180910390f35b61013c60048036038101906101379190610e8f565b61032f565b6040516101499190610e4e565b60405180910390f35b61015a61035d565b6040516101679190610efa565b60405180910390f35b61018a60048036038101906101859190610df6565b610365565b005b6101a660048036038101906101a19190610f13565b6103c9565b6040516101b39190610e76565b60405180910390f35b6101c461040e565b6040516101d19190610f4d565b60405180910390f35b6101e2610433565b6040516101ef9190610d45565b60405180910390f35b610212600480360381019061020d9190610df6565b6104c3565b005b61022e60048036038101906102299190610df6565b610527565b60405161023b9190610e4e565b60405180910390f35b61025e60048036038101906102599190610f66565b610549565b60405161026b9190610e76565b60405180910390f35b60606003805461028390610fd1565b80601f01602080910402602001604051908101604052809291908181526020018280546102af90610fd1565b80156102fa5780601f106102d1576101008083540402835291602001916102fa565b820191905f5260205f20905b8154815290600101906020018083116102dd57829003601f168201915b5050505050905090565b5f5f61030e6105cb565b905061031b8185856105d2565b600191505092915050565b5f600254905090565b5f5f6103396105cb565b90506103468582856105e4565b610351858585610677565b60019150509392505050565b5f6012905090565b61036d610767565b61037782826107ef565b8173ffffffffffffffffffffffffffffffffffffffff167f0f6798a560793a54c3bcfe86a93cde1e73087d944c0ea20544137d4121396885826040516103bd9190610e76565b60405180910390a25050565b5f5f5f8373ffffffffffffffffffffffffffffffffffffffff1673ffffffffffffffffffffffffffffffffffffffff1681526020019081526020015f20549050919050565b60055f9054906101000a900473ffffffffffffffffffffffffffffffffffffffff1681565b60606004805461044290610fd1565b80601f016020809104026020016040519081016040528092919081815260200182805461046e90610fd1565b80156104b95780601f10610490576101008083540402835291602001916104b9565b820191905f5260205f20905b81548152906001019060200180831161049c57829003601f168201915b5050505050905090565b6104cb610767565b6104d5828261086e565b8173ffffffffffffffffffffffffffffffffffffffff167f696de425f79f4a40bc6d2122ca50507f0efbeabbff86a84871b7196ab8ea8df78260405161051b9190610e76565b60405180910390a25050565b5f5f6105316105cb565b905061053e818585610677565b600191505092915050565b5f60015f8473ffffffffffffffffffffffffffffffffffffffff1673ffffffffffffffffffffffffffffffffffffffff1681526020019081526020015f205f8373ffffffffffffffffffffffffffffffffffffffff1673ffffffffffffffffffffffffffffffffffffffff1681526020019081526020015f2054905092915050565b5f33905090565b6105df83838360016108ed565b505050565b5f6105ef8484610549565b90507fffffffffffffffffffffffffffffffffffffffffffffffffffffffffffffffff8110156106715781811015610662578281836040517ffb8f41b200000000000000000000000000000000000000000000000000000000815260040161065993929190611001565b60405180910390fd5b61067084848484035f6108ed565b5b50505050565b5f73ffffffffffffffffffffffffffffffffffffffff168373ffffffffffffffffffffffffffffffffffffffff16036106e7575f6040517f96c6fd1e0000000000000000000000000000000000000000000000000000000081526004016106de9190610f4d565b60405180910390fd5b5f73ffffffffffffffffffffffffffffffffffffffff168273ffffffffffffffffffffffffffffffffffffffff1603610757575f6040517fec442f0500000000000000000000000000000000000000000000000000000000815260040161074e9190610f4d565b60405180910390fd5b610762838383610abc565b505050565b60055f9054906101000a900473ffffffffffffffffffffffffffffffffffffffff1673ffffffffffffffffffffffffffffffffffffffff163373ffffffffffffffffffffffffffffffffffffffff16146107ed576040517f82b4290000000000000000000000000000000000000000000000000000000000815260040160405180910390fd5b565b5f73ffffffffffffffffffffffffffffffffffffffff168273ffffffffffffffffffffffffffffffffffffffff160361085f575f6040517fec442f050000000000000000000000000000000000000000000000000000000081526004016108569190610f4d565b60405180910390fd5b61086a5f8383610abc565b5050565b5f73ffffffffffffffffffffffffffffffffffffffff168273ffffffffffffffffffffffffffffffffffffffff16036108de575f6040517f96c6fd1e0000000000000000000000000000000000000000000000000000000081526004016108d59190610f4d565b60405180910390fd5b6108e9825f83610abc565b5050565b5f73ffffffffffffffffffffffffffffffffffffffff168473ffffffffffffffffffffffffffffffffffffffff160361095d575f6040517fe602df050000000000000000000000000000000000000000000000000000000081526004016109549190610f4d565b60405180910390fd5b5f73ffffffffffffffffffffffffffffffffffffffff168373ffffffffffffffffffffffffffffffffffffffff16036109cd575f6040517f94280d620000000000000000000000000000000000000000000000000000000081526004016109c49190610f4d565b60405180910390fd5b8160015f8673ffffffffffffffffffffffffffffffffffffffff1673ffffffffffffffffffffffffffffffffffffffff1681526020019081526020015f205f8573ffffffffffffffffffffffffffffffffffffffff1673ffffffffffffffffffffffffffffffffffffffff1681526020019081526020015f20819055508015610ab6578273ffffffffffffffffffffffffffffffffffffffff168473ffffffffffffffffffffffffffffffffffffffff167f8c5be1e5ebec7d5bd14f71427d1e84f3dd0314c0f7b2291e5b200ac8c7c3b92584604051610aad9190610e76565b60405180910390a35b50505050565b5f73ffffffffffffffffffffffffffffffffffffffff168373ffffffffffffffffffffffffffffffffffffffff1603610b0c578060025f828254610b009190611063565b92505081905550610bda565b5f5f5f8573ffffffffffffffffffffffffffffffffffffffff1673ffffffffffffffffffffffffffffffffffffffff1681526020019081526020015f2054905081811015610b95578381836040517fe450d38c000000000000000000000000000000000000000000000000000000008152600401610b8c93929190611001565b60405180910390fd5b8181035f5f8673ffffffffffffffffffffffffffffffffffffffff1673ffffffffffffffffffffffffffffffffffffffff1681526020019081526020015f2081905550505b5f73ffffffffffffffffffffffffffffffffffffffff168273ffffffffffffffffffffffffffffffffffffffff1603610c21578060025f8282540392505081905550610c6b565b805f5f8473ffffffffffffffffffffffffffffffffffffffff1673ffffffffffffffffffffffffffffffffffffffff1681526020019081526020015f205f82825401925050819055505b8173ffffffffffffffffffffffffffffffffffffffff168373ffffffffffffffffffffffffffffffffffffffff167fddf252ad1be2c89b69c2b068fc378daa952ba7f163c4a11628f55a4df523b3ef83604051610cc89190610e76565b60405180910390a3505050565b5f81519050919050565b5f82825260208201905092915050565b8281835e5f83830152505050565b5f601f19601f8301169050919050565b5f610d1782610cd5565b610d218185610cdf565b9350610d31818560208601610cef565b610d3a81610cfd565b840191505092915050565b5f6020820190508181035f830152610d5d8184610d0d565b905092915050565b5f5ffd5b5f73ffffffffffffffffffffffffffffffffffffffff82169050919050565b5f610d9282610d69565b9050919050565b610da281610d88565b8114610dac575f5ffd5b50565b5f81359050610dbd81610d99565b92915050565b5f819050919050565b610dd581610dc3565b8114610ddf575f5ffd5b50565b5f81359050610df081610dcc565b92915050565b5f5f60408385031215610e0c57610e0b610d65565b5b5f610e1985828601610daf565b9250506020610e2a85828601610de2565b9150509250929050565b5f8115159050919050565b610e4881610e34565b82525050565b5f602082019050610e615f830184610e3f565b92915050565b610e7081610dc3565b82525050565b5f602082019050610e895f830184610e67565b92915050565b5f5f5f60608486031215610ea657610ea5610d65565b5b5f610eb386828701610daf565b9350506020610ec486828701610daf565b9250506040610ed586828701610de2565b9150509250925092565b5f60ff82169050919050565b610ef481610edf565b82525050565b5f602082019050610f0d5f830184610eeb565b92915050565b5f60208284031215610f2857610f27610d65565b5b5f610f3584828501610daf565b91505092915050565b610f4781610d88565b82525050565b5f602082019050610f605f830184610f3e565b92915050565b5f5f60408385031215610f7c57610f7b610d65565b5b5f610f8985828601610daf565b9250506020610f9a85828601610daf565b9150509250929050565b7f4e487b71000000000000000000000000000000000000000000000000000000005f52602260045260245ffd5b5f6002820490506001821680610fe857607f821691505b602082108103610ffb57610ffa610fa4565b5b50919050565b5f6060820190506110145f830186610f3e565b6110216020830185610e67565b61102e6040830184610e67565b949350505050565b7f4e487b71000000000000000000000000000000000000000000000000000000005f52601160045260245ffd5b5f61106d82610dc3565b915061107883610dc3565b92508282019050808211156110905761108f611036565b5b9291505056fea2646970667358221220a554dda855b20e4be50a0079f3850b6bf353aa474afa604f75b0d2117076eae064736f6c634300081e0033","linkReferences":{}},"methodIdentifiers":{"allowance(address,address)":"dd62ed3e","approve(address,uint256)":"095ea7b3","balanceOf(address)":"70a08231","burn(address,uint256)":"9dc29fac","decimals()":"313ce567","mint(address,uint256)":"40c10f19","name()":"06fdde03","owner()":"8da5cb5b","symbol()":"95d89b41","totalSupply()":"18160ddd","transfer(address,uint256)":"a9059cbb","transferFrom(address,address,uint256)":"23b872dd"},"id":26}